S01700004763634170706C69636174696F6E332E7372656359
S11300000C9434000C9451000C9451000C94510045
S11300100C9451000C9451000C9451000C94510018
S11300200C9451000C9451000C9451000C94510008
S11300300C9451000C9451000C9451000C945100F8
S11300400C9451000C9451000C9451000C945100E8
S11300500C9451000C9451000C9451000C945100D8
S11300600C9451000C94510011241FBECFEFD8E022
S1130070DEBFCDBF12E0A0E0B1E0E8E0F5E002C0F1
S113008005900D92A032B107D9F722E0A0E2B2E0C8
S113009001C01D92AA32B207E1F70E9476020C94C5
S11300A082020C940000833461F0843491F0823431
S11300B0B9F46130710519F48FEF84B9089514B857
S11300C008956130710519F48FEF87B9089517B851
S11300D008956130710519F48FEF8AB908951AB83B
S11300E00895833409F18434D1F1823409F051C084
S11300F0683008F04EC0413059F425B181E090E0F9
S113010002C0880F991F6A95E2F7822B85B908957A
S113011025B181E090E002C0880F991F6A95E2F74B
S11301208095822385B90895673098F5413059F454
S113013028B181E090E002C0880F991F6A95E2F728
S1130140822B88B9089528B181E090E002C0880F1D
S1130150991F6A95E2F78095822388B908956830DB
S1130160C0F4413059F42BB181E090E002C0880F13
S1130170991F6A95E2F7822B8BB908952BB181E020
S113018090E002C0880F991F6A95E2F78095822358
S11301908BB90895833431F0843431F0823429F4F6
S11301A065B9089568B908956BB90895CF93DF933D
S11301B060E084E40E94CA00C0E0D0E02CC060E0AB
S11301C082E40E94CA0060E083E40E94CA00C63050
S11301D0D10534F441E06C2F82E40E94710011C017
S11301E0C630D10531F441E060E083E40E9471003F
S11301F008C0C730D10529F441E061E083E40E94DE
S113020071002FEF83EC99E0215080409040E1F79A
S113021000C000002196C830D1058CF26FEF82E453
S11302200E94CA006FEF83E40E94CA006FEF84E467
S11302300E94CA00C0E0D0E013C06FEF84E40E94C3
S1130240CA0040E06C2F84E40E9471002FEF83EC1D
S113025099E0215080409040E1F700C000002196D1
S1130260C830D10554F360E084E40E94CA006FEF03
S113027082E40E94CA006FEF83E40E94CA002FEF59
S113028087E893E1215080409040E1F700C00000EE
S113029060E082E40E94CA0060E083E40E94CA0035
S11302A06FEF84E40E94CA0080E090E0DF91CF9178
S11302B0089581E08093210261E070E082E40E946D
S11302C0530061E070E084E40E94530061E070E058
S11302D083E40E9453006FEF84E40E94CA000E94EA
S11302E0D60080E090E00895CF93DF93D0E042C041
S11302F06FEF84E40E94CA0060E082E40E94CA00B6
S113030060E083E40E94CA00C0E026C0ED2FF0E064
S1130310EE5DFD4F808190E00C2E02C0959587958F
S11303200A94E2F780FF17C0C63030F441E06C2F26
S113033082E40E9471000FC0C63031F441E060E0F5
S113034083E40E94710007C0C73029F441E061E0F2
S113035083E40E947100CF5FC830C0F240E06D2F8B
S113036084E40E9471008FEC97E00197F1F700C0DC
S11303700000DF5FD83008F4BBCFDF91CF91089540
S1130380CF93DF93AC0120E030E00AC0FA01E20F22
S1130390F31F9081F901EE5DFD4F90832F5F3F4F76
S11303A0283031059CF3C0E0D0E009C00E947401FC
S11303B08FE39FE10197F1F700C000002296CD374B
S11303C0D105A0F3DF91CF91089588E192E00E94D6
S11303D0C00180E192E00E94C00188E092E00E94A6
S11303E0C00180E092E00E94C00188EF91E00E9489
S11303F0C00180EF91E00E94C00188EE91E00E946C
S1130400C00180EE91E00E94C00188ED91E00E945D
S1130410C00180ED91E00E94C00188EC91E00E944F
S1130420C00180EC91E00E94C00188EB91E00E9441
S1130430C00180EB91E00E94C00188EA91E00E9433
S1130440C00180EA91E00E94C00188E991E00E9425
S1130450C00180E991E00E94C00188E891E00E9417
S1130460C00180E891E00E94C00188E791E00E9409
S1130470C00180E791E00E94C00188E691E00E94FB
S1130480C00180E691E00E94C00188E591E00E94ED
S1130490C00180E591E00E94C00188E491E00E94DF
S11304A0C00180E491E00E94C00188E391E00E94D1
S11304B0C00180E391E00E94C00188E291E00E94C3
S11304C0C00180E291E00E94C00188E191E00E94B5
S11304D0C00180E191E00E94C00188E091E00E94A7
S11304E0C00180E091E00E94C0016FCF80912102A1
S11304F0811102C00E945901809120028111FCCF18
S10B05000E94E501F894FFCF0D
S11305083C42423E020438003C42423C42423C00E7
S11305187E020408101010003C407C4242423C0019
S11305287E407C0202423C00040C1424447E0400F5
S11305383C42021C02423C003C42020C30407E0019
S11305481828480808087E003C42464A52623C0083
S11305587E02040810207E00422418101010100097
S11305684224181818244200424242425A66420061
S113057842424242422418004242424242423C0021
S11305887E101010101010003E40403C02027C0007
S11305987C42427C504844003C4242424A443A002D
S11305A87C42427C404040003C42424242423C0041
S11305B84262524A4642420042665A42424242001B
S11305C84040404040407E00444850605048440009
S11305D81E080808484830003C10101010103C0051
S11305E84242427E424242003C42404E42423C0029
S11305F87E40407C404040007E40407C40407E003D
S113060878444242424478003C42404040423C00E4
S11306187C42427C42427C003C42427E424242004E
S9030000FC
