:100000000C9434000C9451000C9451000C94510049
:100010000C9416030C9451000C9451000C94510054
:100020000C9451000C9451000C9451000C9451000C
:100030000C9451000C9451000C9451000C945100FC
:100040000C9451000C9451000C9451000C945100EC
:100050000C9451000C9451000C9451000C945100DC
:100060000C9451000C94510011241FBECFEFD8E026
:10007000DEBFCDBF12E0A0E0B1E0EAE7F6E002C0EB
:1000800005900D92A839B107D9F722E0A8E9B2E0AE
:1000900001C01D92A23AB207E1F70E94F5020C944A
:1000A0003B030C940000833461F0843491F082347B
:1000B000B9F46130710519F48FEF84B9089514B85B
:1000C00008956130710519F48FEF87B9089517B855
:1000D00008956130710519F48FEF8AB908951AB83F
:1000E0000895833409F18434D1F1823409F051C088
:1000F000683008F04EC0413059F425B181E090E0FD
:1001000002C0880F991F6A95E2F7822B85B908957E
:1001100025B181E090E002C0880F991F6A95E2F74F
:100120008095822385B90895673098F5413059F458
:1001300028B181E090E002C0880F991F6A95E2F72C
:10014000822B88B9089528B181E090E002C0880F21
:10015000991F6A95E2F78095822388B908956830DF
:10016000C0F4413059F42BB181E090E002C0880F17
:10017000991F6A95E2F7822B8BB908952BB181E024
:1001800090E002C0880F991F6A95E2F7809582235C
:100190008BB90895833431F0843431F0823429F4FA
:1001A00065B9089568B908956BB90895CF93DF9341
:1001B00060E084E40E94CA00C0E0D0E02CC060E0AF
:1001C00082E40E94CA0060E083E40E94CA00C63054
:1001D000D10534F441E06C2F82E40E94710011C01B
:1001E000C630D10531F441E060E083E40E94710043
:1001F00008C0C730D10529F441E061E083E40E94E2
:1002000071002FEF83EC99E0215080409040E1F79E
:1002100000C000002196C830D1058CF26FEF82E457
:100220000E94CA006FEF83E40E94CA006FEF84E46B
:100230000E94CA00C0E0D0E013C06FEF84E40E94C7
:10024000CA0040E06C2F84E40E9471002FEF83EC21
:1002500099E0215080409040E1F700C000002196D5
:10026000C830D10554F360E084E40E94CA006FEF07
:1002700082E40E94CA006FEF83E40E94CA002FEF5D
:1002800087E893E1215080409040E1F700C00000F2
:1002900060E082E40E94CA0060E083E40E94CA0039
:1002A0006FEF84E40E94CA0080E090E0DF91CF917C
:1002B000089581E08093990261E070E082E40E94F9
:1002C000530061E070E084E40E94530061E070E05C
:1002D00083E40E9453006FEF84E40E94CA000E94EE
:1002E000D60080E090E00895CF93DF93D0E042C045
:1002F0006FEF84E40E94CA0060E082E40E94CA00BA
:1003000060E083E40E94CA00C0E026C0ED2FF0E068
:10031000E656FD4F808190E00C2E02C095958795A2
:100320000A94E2F780FF17C0C63030F441E06C2F2A
:1003300082E40E9471000FC0C63031F441E060E0F9
:1003400083E40E94710007C0C73029F441E061E0F6
:1003500083E40E947100CF5FC830C0F240E06D2F8F
:1003600084E40E9471008FEC97E00197F1F700C0E0
:100370000000DF5FD83008F4BBCFDF91CF91089544
:10038000CF93DF93AC0120E030E00AC0FA01E20F26
:10039000F31F9081F901E656FD4F90832F5F3F4F89
:1003A000283031059CF3C0E0D0E009C00E94740100
:1003B0008FE39FE10197F1F700C000002296CD374F
:1003C000D105A0F3DF91CF9108951F93CF93DF93D1
:1003D000CDB7DEB7C854D1090FB6F894DEBF0FBE53
:1003E000CDBF88E4E0E0F1E0DE01119601900D92CE
:1003F0008A95E1F710E013C080919802811111C035
:10040000E12FF0E0EE0FFF1F81E090E08C0F9D1FC9
:10041000E80FF91F808191810E94C0011F5F143293
:1004200058F3C85BDF4F0FB6F894DEBF0FBECDBFE9
:10043000DF91CF911F910895EF92FF920F931F9339
:10044000CF93DF93CDB7DEB728970FB6F894DEBF12
:100450000FBECDBFBC01FE01319688E0DF011D92C9
:100460008A95E9F790E00EC0292F30E0FB01E20FFA
:10047000F31F4081E1E0F0E0EC0FFD1FE20FF31FFE
:1004800040839F5F983080F380E006C0E82FF0E063
:10049000E656FD4F10828F5F8830C0F311E03FC0F9
:1004A00068E070E0611B71092FEF30E0062E02C09A
:1004B000220F331F0A94E2F7A02FB0E0FD01E656A9
:1004C000FD4F808190E0AC01440F551F81E090E02A
:1004D0008C0F9D1FA80FB91F8C912823822F90E0AD
:1004E00002C0959587956A95E2F7842B80830F5F0C
:1004F00001C000E00830A0F2E12CF12C0BC00E94FA
:100500007401AFE3BFE11197F1F700C00000B2E062
:10051000EB0EF11C8DE1E816F10488F31F5F193032
:1005200040F3F12C1DC0E82FF0E0E656FD4F90811E
:10053000990F90838F5F01C080E08830A0F300E0C6
:1005400010E00AC00E947401AFE3BFE11197F1F718
:1005500000C000000E5F1F4F0D31110598F3F3949A
:10056000B7E0BF1548F728960FB6F894DEBF0FBE68
:10057000CDBFDF91CF911F910F91FF90EF90089524
:100580001F93CF93DF93CDB7DEB7E0970FB6F89404
:10059000DEBF0FBECDBF80E3E8E4F1E0DE011196DF
:1005A00001900D928A95E1F710E013C080919802B6
:1005B000813089F4E12FF0E0EE0FFF1F81E090E041
:1005C0008C0F9D1FE80FF91F808191810E941C02F2
:1005D0001F5F183158F3E0960FB6F894DEBF0FBED8
:1005E000CDBFDF91CF911F91089580919902811124
:1005F00002C00E94590187B1877F87B988B188609E
:1006000088B9E8E6F0E0808182608083ECE6F0E083
:10061000808188608083789480919802811103C0E2
:100620000E94E501F9CF0E94C002F6CF1F920F92FF
:100630000FB60F9211242F938F939F932FEF89E67C
:1006400098E1215080409040E1F700C000003399CC
:100650000AC080919802811104C081E080939802C1
:1006600002C0109298029F918F912F910F900FBE10
:0A0670000F901F901895F894FFCF2B
:10067A0090028802800278027002680260025802C0
:10068A0050024802400238023002280220021802B0
:10069A00100208020002F801F001E801E001D801A5
:1006AA00D001C801C001B801B001A801A001980198
:1006BA0090018801800178015802200238029002D4
:1006CA003002F001280278022002B801B80178014C
:1006DA008801A001B0018001D001B801B8017801F8
:1006EA0078018001A80198013C42423E0204380088
:1006FA003C42423C42423C007E0204081010100078
:10070A003C407C4242423C007E407C0202423C0029
:10071A00040C1424447E04003C42021C02423C00A5
:10072A003C42020C30407E001828480808087E0027
:10073A003C42464A52623C007E02040810207E0077
:10074A0042241810101010004224181818244200CD
:10075A00424242425A6642004242424242241800FF
:10076A004242424242423C007E10101010101000D9
:10077A003E40403C02027C007C42427C504844009D
:10078A003C4242424A443A007C42427C4040400059
:10079A003C42424242423C004262524A4642420083
:1007AA0042665A42424242004040404040407E0037
:1007BA0044485060504844001E0808084848300021
:1007CA003C10101010103C004242427E424242004D
:1007DA003C42404E42423C007E40407C4040400009
:1007EA007E40407C40407E00784442424244780049
:1007FA003C42404040423C007C42427C42427C00B7
:08080A003C42427E42424200E2
:00000001FF
